:020000040800F2
:10000000B0060020CD010008C1040008C3040008A8
:10001000C7040008CB040008CF040008000000005B
:10002000000000000000000000000000D3040008F1
:10003000D504000800000000D7040008D904000817
:10004000E7010008E7010008E7010008E7010008F0
:10005000E7010008E7010008E7010008E7010008E0
:10006000E7010008E7010008E7010008E7010008D0
:10007000E7010008E7010008E7010008E7010008C0
:10008000E7010008E7010008E7010008E7010008B0
:10009000E7010008E7010008E7010008E7010008A0
:1000A000E7010008E7010008E7010008E701000890
:1000B000E7010008E7010008E7010008E701000880
:1000C000E7010008E7010008E7010008E701000870
:1000D000E7010008E7010008E7010008E701000860
:1000E000E7010008E7010008E7010008E701000850
:1000F000E7010008E7010008E7010008E701000840
:10010000E7010008E7010008E7010008E70100082F
:10011000E7010008E7010008E7010008E70100081F
:10012000E7010008E7010008E7010008E70100080F
:1001300000F002F800F03CF80AA090E8000C8244BD
:100140008344AAF10107DA4501D100F031F8AFF29A
:10015000090EBAE80F0013F0010F18BFFB1A43F0A5
:1001600001031847801B0000A01B0000103A24BFA9
:1001700078C878C1FAD8520724BF30C830C144BF0C
:1001800004680C607047000000230024002500264E
:10019000103A28BF78C1FBD8520728BF30C148BFEA
:1001A0000B6070471FB5AFF300801FBD10B510BDC9
:1001B00001F05DFD1146FFF7F5FF00F053F901F086
:1001C0007BFDFFF7F3FF01F081FD00000948804748
:1001D00009480047FEE7FEE7FEE7FEE7FEE7FEE729
:1001E000FEE7FEE7FEE7FEE704480549054A064B41
:1001F00070470000D502000831010008B00000205F
:10020000B0060020B0020020B00200200020002133
:10021000654A126842F48032634B1A6000BF624A3A
:10022000126802F40031401C11B9B0F5A06FF6D18C
:100230005D4A126812F4003F01D0012100E0002164
:10024000012942D1594A126842F01002574B1A60F4
:100250001A46126822F003021A601A46126842F027
:1002600002021A60504A52684F4B5A601A4652684E
:100270005A601A46526842F480625A601A465268BE
:1002800022F47C125A601A46526842F4E8125A600C
:100290001A46126842F080721A6000BF424A126821
:1002A00012F0007FFAD0404A526822F003023E4B1F
:1002B0005A601A46526842F002025A6000BF3A4A37
:1002C000526802F00C02082AF9D1704710B5FFF706
:1002D0009DFF10BD10B53448006840F00100324960
:1002E000086008464068324908402F49486008467F
:1002F0000068304908402C4908600846006820F42E
:10030000802008600846406820F4FE0048604FF4F2
:100310001F008860FFF7DAFF10BD10B50020002134
:100320000022214B5B6803F00C0020B1042806D0AA
:10033000082828D107E0204B204C236027E01E4BE3
:100340001E4C236023E0184B5B6803F47011164BBE
:100350005B6803F48032022303EB914122B9184B0E
:100360004B43164C23600DE00F4B5B6813F4003FCA
:1003700004D0134B4B43114C236003E00E4B4B4313
:100380000E4C236003E00C4B0C4C236000BF00BFFD
:10039000054B5B68C3F303130A4CE05C074B1B6817
:1003A000C340064C236010BD0010024000200240F4
:1003B0000000FFF8FFFFF6FE00127A0000000020A8
:1003C00000093D000400002010B5034607E018783E
:1003D0000C78A04201D0002010BD5B1C491C10000D
:1003E000A2F10102F3D10120F6E710B500214FF090
:1003F000006000F0ABF810BD10B500F01DFF4FF429
:10040000803000F039FF00F076FF0446012C24D143
:10041000102000F0E6F8022000F0D0F8002000F0F4
:10042000A9FF002000F0B6FFA00200F0ABFF4FF4E0
:10043000E011200400F083FF012000F08BFF00BFDB
:10044000392000F03CFF0028FAD0022000F085FFA0
:1004500000BF00F08AFF0828FBD10121102001F025
:1004600051F810BD38B50024FFF7C6FFFFF7BDFFF8
:1004700001F036FA122300930E4B012202210846A6
:1004800001F047FB12230C4A0121022001F089FBF5
:10049000122209490748FFF797FF0446012C03D1B0
:1004A00003200649087002E004200449087000BFD8
:1004B000FEE70000140000203C0000202700002080
:1004C000704700BFFEE700BFFEE700BFFEE700BFCA
:1004D000FEE770477047704770470000324901439C
:1004E000324A1160704770B5002100230F22C47892
:1004F0000CB32E4C246804F4E064C4F5E064210AD3
:10050000C1F10403CA40447804FA03F1847814402A
:1005100021430901264C0678A155047804F01F05F3
:100520000124AC4005786D114FF0E02606EB8505FF
:10053000C5F8004109E0047804F01F040125A54036
:100540001C4C0678761144F8265070BD1A4A0A40B1
:100550000243164B1B1F1A60704741B1134A121D0C
:10056000126802434FF0E023C3F8102D07E00F4A52
:10057000121D126882434FF0E023C3F8102D70471C
:10058000042808D14FF0E021096941F004014FF03F
:10059000E022116107E04FF0E021096921F0040138
:1005A0004FF0E022116170470000FA050CED00E009
:1005B00000E400E080E100E080FFFF1F0021FF4A2F
:1005C000116801F03801014311607047FB49096867
:1005D00021F00801F94A11601146096801431160D0
:1005E0007047F649096821F01001F44A116011467C
:1005F0000968014311607047F148F0494860F148CB
:100600004860EF484864EF4848647047EC48EB495D
:100610004860EC4848607047E948E8494864E94860
:1006200048647047E548006940F08000E34908618C
:100630000846006D40F0800008657047DF4800699B
:1006400040F08000DD4908617047DC48006D40F0F3
:100650008000DA49086570470420D849C96C01F068
:100660000101012901D101200EE0D449C96C11F02A
:10067000040F01D0022007E0D049C96C11F0100F1F
:1006800001D0032000E00420704700B50246042397
:10069000FFF7E2FF034603E0FFF7DEFF0346521ECB
:1006A000012B01D1002AF7D102B90523184600BD5C
:1006B0000420C249C96801F00101012901D10120CA
:1006C0000EE0BE49C96811F0040F01D0022007E016
:1006D000BA49C96811F0100F01D0032000E00420CE
:1006E000704700B502460423FFF7E2FF034603E02C
:1006F000FFF7DEFF0346521E012B01D1002AF7D17E
:1007000002B90523184600BD30B504460425AE489D
:10071000844221D24FF43020FFF7E3FF0546042D39
:100720003BD1A648006940F00200A4490861084690
:100730004461006940F0400008614FF43020FFF749
:10074000D0FF0546052D28D09C48006941F6FD7173
:1007500008409A49086120E04FF43020FFF795FFE8
:100760000546042D19D19548006D40F002009349CB
:10077000086508464465006D40F0400008654FF488
:100780003020FFF782FF0546052D06D08B48006D0F
:1007900041F6FD71084089490865284630BD10B50D
:1007A00004244FF43020FFF79CFF0446042C18D19A
:1007B0008248006940F004008049086108460069E9
:1007C00040F0400008614FF43020FFF78AFF0446F4
:1007D000052C06D07948006941F6FB71084077493D
:1007E0000861042C18D17548006D40F0040073496D
:1007F00008650846006D40F0400008654FF4302061
:10080000FFF743FF0446052C06D06C48006D41F607
:10081000FB71084069490865204610BD10B50424E5
:100820004FF43020FFF75DFF0446042C18D16348D5
:10083000006940F00400614908610846006940F021
:10084000400008614FF43020FFF74BFF0446052CB1
:1008500006D05A48006941F6FB71084057490861C3
:10086000204610BD10B504244FF43020FFF70DFFD3
:100870000446042C18D15148006D40F004004F4943
:1008800008650846006D40F0400008654FF43020D0
:10089000FFF7FBFE0446052C06D04848006D41F6E4
:1008A000FB71084045490865204610BD00B5024669
:1008B0000423FFF7FDFE034603E0FFF7F9FE0346BE
:1008C000521E012B01D1002AF7D102B90523184687
:1008D00000BD00203949C96911F0020F01D0012083
:1008E00000E00020704730B5A5240425FFF7F1FF94
:1008F00000B100244FF43020FFF7D8FF0546042D47
:100900003AD12F482D4988602E48886008460069F2
:1009100040F0200008610846006940F0400008618E
:100920004FF43020FFF7C2FF0546042D1BD12348AA
:10093000006941F6DF7108402049086108460069F6
:1009400040F01000086121480480E802FFF7AEFF84
:100950000546052D10D01948006941F6EF71084091
:100960001649086108E0052D06D01448006941F6D3
:10097000EF71084011490861284630BDF0B50446C2
:100980000D46042600271048801E844238D2F0020B
:10099000FFF7A7FE0646042E27D10848006940F05D
:1009A0000100064908612580F002FFF77FFF064637
:1009B000042E1BD1A71C280C388009E0002002401F
:1009C00023016745AB89EFCDFFFF070800F8FF1F44
:1009D000F002FFF76BFF0646052E06D0FF480069C0
:1009E00041F6FE710840FD49086187E0052EFCD004
:1009F000FA48006941F6FE710840F84908617DE057
:100A0000F74884424CD14FF40050FFF76AFE064687
:100A1000042E14D1F148006940F00100EF4908614B
:100A20002580F002FFF75DFE0646052E10D0EB484C
:100A3000006941F6FE710840E849086108E0052EAA
:100A400006D0E648006941F6FE710840E3490861B6
:100A50004FF40050FFF719FE0646042E16D1DF486A
:100A6000006D40F00100DD490865A71C280C3880A6
:100A7000F002FFF70AFE0646052E3FD0D748006D6C
:100A800041F6FE710840D549086537E0052E35D09E
:100A9000D248006D41F6FE710840D04908652DE04E
:100AA0004FF40050FFF7F1FD0646042E26D1CB4847
:100AB000006D40F00100C94908652580F002FFF78C
:100AC000E4FD0646042E10D1A71C280C3880F00245
:100AD000FFF7DBFD0646052E10D0C048006D41F63D
:100AE000FE710840BD49086508E0052E06D0BB48E8
:100AF000006D41F6FE710840B84908653046F0BD0A
:100B000070B504460D460426F002FFF7CFFE0646F8
:100B1000B348401C844216D2042E2AD1AF48006943
:100B200040F00100AD4908612580F002FFF7D9FDD2
:100B30000646052E1DD0A948006941F6FE71084001
:100B4000A649086115E0042E13D1A448006D40F0B9
:100B50000100A24908652580F002FFF796FD0646D0
:100B6000052E06D09D48006D41F6FE7108409B4958
:100B70000865304670BD70B504460D460426F00287
:100B8000FFF794FE0646042E17D1964893498860D5
:100B9000954888600846006940F01000086125808B
:100BA000F002FFF783FE0646052E06D08B4800694B
:100BB00041F6EF71084089490861304670BD2DE962
:100BC000F04304464FF6FF752E462F46A8464FF0D9
:100BD0000409E443E5B2C4F30726C4F307474FEA28
:100BE00014684FF40050FFF761FE8146B9F1040F1D
:100BF00044D17C48794988607B4888600846006910
:100C000040F010000861FF2D06D0784805804FF4B1
:100C10000050FFF74BFE8146B9F1040F09D1FF2EBA
:100C200007D07248801C06804FF40050FFF73EFE4C
:100C30008146B9F1040F09D1FF2F07D06B48001D81
:100C400007804FF40050FFF731FE8146B9F1040FE1
:100C50000AD1B8F1FF0F07D06548A0F80E884FF40D
:100C60000050FFF723FE8146B9F1050F06D05B481F
:100C7000006941F6EF710840584908614846BDE8EF
:100C8000F08330B5044604254FF43020FFF70EFE04
:100C90000546042D43D15348504988605248886026
:100CA0000846006940F0200008610846006940F0ED
:100CB000400008614FF43020FFF7F8FD0546042D91
:100CC00024D14648006941F6DF7108404349086174
:100CD0000846006940F01000086124B10020434933
:100CE0000839088003E0A5204049083908804FF4FE
:100CF0003020FFF7DBFD0546052D10D03748006991
:100D000041F6EF7108403549086108E0052D06D02D
:100D10003248006941F6DF710840304908612846D1
:100D200030BDF0B504460D46164604272D482B4924
:100D300088602D488860F802FFF7B8FD0746042F49
:100D400019D12648006940F010002449086146F096
:100D5000F800284320432549891F0880F802FFF73F
:100D6000A5FD0746052F06D01C48006941F6EF7126
:100D700008401A4908613846F0BD30B504460425DC
:100D800018481649886018488860E802FFF78EFD09
:100D90000546042D33D11148006940F010000F4979
:100DA000086144B91148801F008840F008001049CC
:100DB000A1F8020808E00D48801F00884FF6F7717F
:100DC00008400B49A1F802084FF40050FFF76EFDF0
:100DD0000546052D13D0014800690BE000200240B4
:100DE000FEFF070823016745AB89EFCD08F8FF1F19
:100DF00000F0FF1F41F6EF7108403C4908612846AA
:100E000030BD3A48C069800870473848006A70476A
:100E100000203649096811F0200F01D0012000E0C0
:100E20000020704710F0004F10D039B12F4A126DDA
:100E300020F000431A432D4B1A6513E02B4A126D24
:100E400020F000439A43294B1A650BE029B1274A49
:100E500012690243254B1A6104E0244A1269824355
:100E6000224B1A61704701460020012908D11F4A10
:100E7000D26912F0010F01D0012013E0002011E02F
:100E800011F0004F07D0194AD26C0A4201D001205C
:100E900008E0002006E0154AD2680A4201D001208D
:100EA00000E00020704710F0004F02D00F49C864E6
:100EB00001E00E49C860704704200C49C96801F080
:100EC0000101012901D101200EE00849C96811F092
:100ED000040F01D0022007E00449C96811F0100F87
:100EE00001D0032000E004207047000000200240F1
:100EF00010B50446C748844208D10121042000F0FF
:100F00001BFB0021042000F017FB46E0C24884428E
:100F100008D10121082000F00FFB0021082000F07B
:100F20000BFB3AE0BD48844208D10121102000F0BB
:100F300003FB0021102000F0FFFA2EE0B8488442A5
:100F400008D10121202000F0F7FA0021202000F034
:100F5000F3FA22E0B348844208D10121402000F096
:100F6000EBFA0021402000F0E7FA16E0AE48844298
:100F700008D10121802000F0DFFA0021802000F05C
:100F8000DBFA0AE0A948844207D10121801500F06C
:100F9000D3FA0021A01500F0CFFA10BD10B5012141
:100FA000084600F0C9FA0021012000F0C5FA10BD82
:100FB000F0B500220023002400250026002791F828
:100FC00003C00CF00F0291F803C01CF0100F03D007
:100FD00091F802C04CEA0202B1F800C01CF0FF0F09
:100FE00031D0066800242BE04FF0010C0CFA04F518
:100FF000B1F800C00CEA0503AB4220D1A5004FF0C8
:101000000F0C0CFA05F7BE4302FA05FC4CEA060683
:1010100091F803C0BCF1280F06D14FF0010C0CFA77
:1010200004FCC0F814C00AE091F803C0BCF1480FFA
:1010300005D14FF0010C0CFA04FCC0F810C0641C80
:10104000082CD1D30660B1F800C0BCF1FF0F34DD2D
:10105000466800242EE004F1080C4FF0010E0EFA51
:101060000CF5B1F800C00CEA0503AB4221D1A50094
:101070004FF00F0C0CFA05F7BE4302FA05FC4CEAE0
:10108000060691F803C0BCF1280F05D104F1080C45
:101090000EFA0CFEC0F814E091F803C0BCF1480F42
:1010A00007D104F1080C4FF0010E0EFA0CFEC0F847
:1010B00010E0641C082CCED34660F0BD4FF6FF71E3
:1010C0000180022181700421C17070470246002016
:1010D00093680B4201D0012000E0002070470146D8
:1010E000886880B2704702460020D3680B4201D066
:1010F000012000E0002070470146C86880B27047B8
:1011000001617047416170470AB1016100E04161CE
:101110007047C16070474FF480320A438261816139
:1011200082618269826970470022414B1A684FF6DA
:1011300080731A4042EA00120A433D4B1A6070471E
:101140003C49C8617047F0B5002200230024002507
:1011500000F00046B6F1004F02D1354EF46901E0CF
:10116000334E7468C0F3034582B200F44016B6F5FE
:10117000401F08D124F070642D4E766826F070660A
:101180002B4F7E6012E000F48016B6F5801F06D16A
:10119000032606FA05F39C4344F0706406E0460D0E
:1011A000360102FA06F6B44344F0706421B1460DEC
:1011B000360102FA06F6344300F00046B6F1004F5D
:1011C00002D11B4EF46101E0194E7460F0BD30B5E0
:1011D00000228B071C0F0F2303FA04F2144B083371
:1011E0008C1053F8244094438D1043F825408C1004
:1011F00053F824308C07240F00FA04F423430C4CDA
:1012000008348D1044F8253030BD0A49DC310860BF
:101210007047000000080140000C01400010014030
:101220000014014000180140001C01400020014052
:101230000000014000002042DB48006840F001004F
:10124000D949086008464068D8490840D6494860EE
:1012500008460068D6490840D34908600846006837
:1012600020F4802008600846406820F4FE004860B2
:101270004FF41F0088607047CB49096821F4803122
:10128000C94A11601146096821F480211160B0F546
:10129000803F03D0B0F5802F0ED106E0C249096827
:1012A00041F48031C04A116007E0BF49096841F448
:1012B000A021BD4A116000E000BF00BF704710B51B
:1012C00001460022002300204A11012A02D1B64C17
:1012D000236806E0022A02D1B34C236A01E0B24C33
:1012E000636A01F01F02012494401C4201D00120D6
:1012F00000E0002010BD70B500240025002600BFCE
:101300003120FFF7DCFF0646641CB4F5A06F01D066
:10131000002EF5D03120FFF7D2FF08B1012500E003
:101320000025284670BD00219F4A116821F0F80170
:1013300041EAC001116070479E4908607047002271
:10134000994B5A6822F47C1240EA01031A43964BE7
:101350005A6070479749086670470021924A516861
:1013600021F003010143516070478F48406800F04D
:101370000C00704700218C4A516821F0F0010143B4
:10138000516070470021884A516821F4E0610143AF
:10139000516070470021844A516821F4605141EA4C
:1013A000C0015160704729B17F4A527A02437E4B97
:1013B0005A7206E07C4A527AC343DBB21A407A4B37
:1013C0005A7270477B49D831086070470021764ACD
:1013D000516821F440410143516070470021724A35
:1013E00020321170704A82F82010012802D004289F
:1013F0000AD104E001216C4A2032117005E0052178
:10140000694A2032117000E000BF00BF70476A498E
:10141000086070476449096A0143634A1162704772
:10142000654944390860704730B500210022002327
:1014300000245D4D6D6805F00C0121B1042905D033
:10144000082923D105E05D4D056022E05B4D056074
:101450001FE0554D6D6805F47012534D6D6805F42D
:101460008033022505EB92421BB9554D554305606B
:101470000BE04D4D6D6815F4003F03D0504D5543C2
:10148000056002E04D4D5543056002E04B4D05609F
:1014900000BF00BF444D6D6805F0F0010909494DDA
:1014A0006C5C0568E54045603F4D6D6805F4E061A2
:1014B000090A444D6C5C4568E54085603A4D6D68AD
:1014C00005F46051C90A3F4D6C5C4568E540C56054
:1014D000354D6D6805F44041890B3A4D10356C5C13
:1014E000C568B5FBF4F5056130BD29B12E4A5269D6
:1014F00002432D4B5A6104E02B4A526982432A4B26
:101500005A61704729B1284A92690243264B9A6171
:1015100004E0254A92698243234B9A61704729B1BE
:10152000214AD2690243204BDA6104E01E4AD269A3
:1015300082431D4BDA61704729B11B4AD2680243CE
:10154000194BDA6004E0184AD2688243164BDA601D
:10155000704729B1144A12690243134B1A6104E01F
:10156000114A12698243104B1A617047124940397F
:10157000086070470F49C86470470B49C8717047CD
:101580000948406A40F08070074948627047014648
:101590000020054A92680A4201D0012000E00020A4
:1015A0007047014988727047001002400000FFF840
:1015B000FFFFF6FE000042428004424200127A0021
:1015C00000093D002800002010B50446BE488442B2
:1015D00008D101218014FFF7AFFF0021A014FFF70D
:1015E000ABFF16E0B948844208D101210014FFF78F
:1015F000B0FF00212014FFF7ACFF0AE0B44884429A
:1016000007D10121C013FFF7A4FF0021E013FFF76A
:10161000A0FF10BD10B50022028802F441520B88D1
:101620004C8823438C882343CC8823430C89234351
:101630004C8923438C892343CC8923431A4302805A
:10164000838B4FF2FF74234083830B8A038210BD88
:101650002DE9F04F85B004460D4600260227B0461E
:101660004FF00109B246B346A08B4FF2400108404B
:10167000A08302202084A68BA868022801D100BF85
:1016800038E0A88810B94FF0010901E04FF00209D5
:101690008E48844200D100E000BF6846FFF7C4FED8
:1016A000DDF800B0E888B0F5007F0BD14FEA1B20D1
:1016B00000EB80004000A968B0FBF1F0401D1FFA6C
:1016C00080FA0CE04FEA4910BBFBF0F000EB800021
:1016D0004000A968B0FBF1F0401D1FFA80FA0A2013
:1016E000BAFBF0FA0AF00108AAEB0800C0F34F07B2
:1016F0004FEA0828022F01DBFF2F02DD02274FF0FF
:101700000008E88840EA080038432084A888A989AE
:101710000843698808432988084340F40060064369
:10172000A68305B0BDE8F08F002101804180818053
:10173000C180018141818181C1810721018270477E
:101740000021018041808180C180022181600021CF
:101750008181704721B1028842F04002028004E09A
:1017600002884FF6BF731A400280704721B1828B06
:1017700042F48062828304E0828B4FF6FF331A408A
:101780008283704770B5002300240B1101259D4012
:10179000ACB21AB185882543858004E08588E6438C
:1017A000B6B23540858070BD10B51AB183880B4341
:1017B000838004E08388CC43A4B22340838010BD9F
:1017C00081817047014688897047A1F57E42FF3AC2
:1017D00004D0028842F48072028004E002884FF64E
:1017E000FF631A400280704721B1828842F00402F0
:1017F000828004E082884FF6FB731A408280704733
:1018000002884FF2FF731A40028002880A43028066
:101810007047018841F480510180704721B10288EE
:1018200042F40052028004E002884DF6FF731A4031
:101830000280704702460020012901D0108B00E091
:10184000908A70470146088A7047B1F5804F04D1ED
:10185000028842F48042028004E002884BF6FF7363
:101860001A40028070470246002013890B4201D0C3
:10187000012000E000207047CA4302817047F0B5A4
:101880000246002000230024002501F00F07012656
:10189000BE40B3B20C110126A640B4B2968806EA47
:1018A000040516891E4202D00DB1012000E000207F
:1018B000F0BD10B5002201F00F040123A3409AB23D
:1018C000D343038110BD00000030014000380040C8
:1018D000003C004000BF0100A0F10100FBD17047B7
:1018E00000B587B001210420FFF70CFE0121080399
:1018F000FFF708FEE020ADF8040018208DF807007F
:1019000003208DF8060001A9D448FFF751FB1020F1
:10191000ADF804008DF8070001A9D048FFF748FB97
:101920001020ADF804008DF8070001A9CC48FFF79E
:101930003FFB1021C948FFF7E3FB1021C848FFF720
:10194000E1FB3220FFF7C6FF1021C548FFF7D8FBA7
:101950000020ADF808004FF48270ADF80A000020B6
:10196000ADF80C000220ADF80E000120ADF810001B
:101970004002ADF812003820ADF814000020ADF898
:1019800016000720ADF8180002A9B648FFF742FE7E
:101990000121B448FFF7DEFE07B000BD10B50446D4
:1019A00000BF0221AF48FFF75EFF0028F9D02146B3
:1019B000AC48FFF705FF00BF0121AA48FFF753FF1E
:1019C0000028F9D0A748FFF7FDFEC0B210BD10B542
:1019D000FF20FFF7E3FF10BD10B510219F48FFF770
:1019E00091FBD720FFF7DAFFFFF7F1FF0446102144
:1019F0009A48FFF785FB204610BD70B504460D469A
:101A0000B5F5805F28D200BFFFF7E6FF10F0800F2A
:101A1000FAD010219148FFF775FB012C02D0022C5F
:101A200008D103E08320FFF7B9FF03E08620FFF72A
:101A3000B5FF00BF00BFC5F38710FFF7AFFFA906D2
:101A4000080EFFF7ABFF0020FFF7A8FF1021834827
:101A5000FFF756FB012070BD0020FCE72DE9F041A7
:101A600004460F4616469846C7F50470404533D3E2
:101A7000B8F1000F30D000BFFFF7AEFF10F0800FBD
:101A8000FAD010217548FFF73DFB012C02D0022C43
:101A900008D103E08420FFF781FF03E08720FFF7F0
:101AA0007DFF00BF00BF0020FFF778FFC7F30720CE
:101AB000FFF774FFF8B2FFF771FF002503E0705DD8
:101AC000FFF76CFF6D1C4545F9D310216348FFF704
:101AD00017FB0120BDE8F0810020FBE72DE9F04174
:101AE00004460D4616469846069FC6F50470B84251
:101AF0000DD367B13B46424631462046FFF7AEFF65
:101B000029462046FFF779FF0120BDE8F08100203B
:101B1000FBE72DE9F04704460D4616461F46DDF863
:101B20002080C6F50470404539D3B8F1000F36D097
:101B300000BFFFF751FF10F0800FFAD01021474887
:101B4000FFF7E0FA012C02D0022C08D103E082203A
:101B5000FFF724FF03E08520FFF720FF00BF00BF51
:101B6000C5F38710FFF71AFFA90041EA1621C8B292
:101B7000FFF714FFF0B2FFF711FF4FF0000905E087
:101B800017F80900FFF70AFF09F10109C145F7D36A
:101B900010213248FFF7B4FA0120BDE8F087002099
:101BA000FBE72DE9F04104460D4616461F46B7F502
:101BB000041F2ED800BFFFF70FFF10F0800FFAD0E0
:101BC00010212648FFF79EFA0B20FFF7E7FEC4F32B
:101BD0008710FFF7E3FEA10041EA1521C8B2FFF725
:101BE000DDFEE8B2FFF7DAFE0020FFF7D7FE4FF088
:101BF000000805E0FFF7EBFE06F8080008F1010811
:101C0000B845F7D310211548FFF77AFA0120BDE84F
:101C1000F0810020FBE72DE9F04100BFFFF7DCFE7B
:101C200010F0800FFAD010210C48FFF76BFA9F20BC
:101C3000FFF7B4FEFFF7CBFE0446FFF7C8FE0546EC
:101C4000FFF7C5FE0646FFF7C2FE07461021034810
:101C5000FFF756FA2046BDE8F08100000008014079
:101C600000100140003001407047704770477546D2
:101C700000F028F8AE4605006946534620F00700FC
:101C8000854618B020B5FEF7AFFABDE820404FF00A
:101C900000064FF000074FF000084FF0000B21F056
:101CA0000701AC46ACE8C009ACE8C009ACE8C00923
:101CB000ACE8C0098D4670470446AFF3008020466B
:101CC000FEF77FFA004870475000002003494FF0AC
:101CD0001800ABBE7047000009000000260002009B
:101CE00070470000041D0008000000203C000000B8
:101CF0006C010008401D00083C0000207406000034
:101D00008801000800A24A04000000000000000052
:101D1000010203040607080957656C636F6D6520AF
:101D2000746F206A6F696E207573000000000000F8
:101D3000010203040102030406070809020406085D
:0400000508000131BD
:00000001FF
